{
    "contractName": "HumansToken",
    "abi": [
        {
            "inputs": [],
            "stateMutability": "nonpayable",
            "type": "constructor"
        },
        {
            "anonymous": false,
            "inputs": [
                {
                    "indexed": true,
                    "internalType": "address",
                    "name": "owner",
                    "type": "address"
                },
                {
                    "indexed": true,
                    "internalType": "address",
                    "name": "spender",
                    "type": "address"
                },
                {
                    "indexed": false,
                    "internalType": "uint256",
                    "name": "value",
                    "type": "uint256"
                }
            ],
            "name": "Approval",
            "type": "event"
        },
        {
            "anonymous": false,
            "inputs": [
                {
                    "indexed": true,
                    "internalType": "address",
                    "name": "previousOwner",
                    "type": "address"
                },
                {
                    "indexed": true,
                    "internalType": "address",
                    "name": "newOwner",
                    "type": "address"
                }
            ],
            "name": "OwnershipTransferred",
            "type": "event"
        },
        {
            "anonymous": false,
            "inputs": [
                {
                    "indexed": false,
                    "internalType": "address",
                    "name": "account",
                    "type": "address"
                }
            ],
            "name": "Paused",
            "type": "event"
        },
        {
            "anonymous": false,
            "inputs": [
                {
                    "indexed": true,
                    "internalType": "string",
                    "name": "",
                    "type": "string"
                },
                {
                    "indexed": true,
                    "internalType": "uint256",
                    "name": "",
                    "type": "uint256"
                },
                {
                    "indexed": true,
                    "internalType": "uint256",
                    "name": "",
                    "type": "uint256"
                },
                {
                    "indexed": false,
                    "internalType": "uint256",
                    "name": "",
                    "type": "uint256"
                }
            ],
            "name": "ScheduleUnlock",
            "type": "event"
        },
        {
            "anonymous": false,
            "inputs": [
                {
                    "indexed": false,
                    "internalType": "uint256",
                    "name": "id",
                    "type": "uint256"
                }
            ],
            "name": "Snapshot",
            "type": "event"
        },
        {
            "anonymous": false,
            "inputs": [
                {
                    "indexed": true,
                    "internalType": "address",
                    "name": "from",
                    "type": "address"
                },
                {
                    "indexed": true,
                    "internalType": "address",
                    "name": "to",
                    "type": "address"
                },
                {
                    "indexed": false,
                    "internalType": "uint256",
                    "name": "value",
                    "type": "uint256"
                }
            ],
            "name": "Transfer",
            "type": "event"
        },
        {
            "anonymous": false,
            "inputs": [
                {
                    "indexed": false,
                    "internalType": "address",
                    "name": "account",
                    "type": "address"
                }
            ],
            "name": "Unpaused",
            "type": "event"
        },
        {
            "inputs": [],
            "name": "AiMiningAndStaking_TGE_Unlock",
            "outputs": [
                {
                    "internalType": "uint256",
                    "name": "amount",
                    "type": "uint256"
                }
            ],
            "stateMutability": "nonpayable",
            "type": "function"
        },
        {
            "inputs": [],
            "name": "BusinessDevelopment_TGE_Unlock",
            "outputs": [
                {
                    "internalType": "uint256",
                    "name": "amount",
                    "type": "uint256"
                }
            ],
            "stateMutability": "nonpayable",
            "type": "function"
        },
        {
            "inputs": [],
            "name": "CurrentScheduleMonth",
            "outputs": [
                {
                    "internalType": "uint256",
                    "name": "month",
                    "type": "uint256"
                }
            ],
            "stateMutability": "view",
            "type": "function"
        },
        {
            "inputs": [],
            "name": "LiquidityExchangeAndListings_TGE_Unlock",
            "outputs": [
                {
                    "internalType": "uint256",
                    "name": "amount",
                    "type": "uint256"
                }
            ],
            "stateMutability": "nonpayable",
            "type": "function"
        },
        {
            "inputs": [],
            "name": "Marketing_TGE_Unlock",
            "outputs": [
                {
                    "internalType": "uint256",
                    "name": "amount",
                    "type": "uint256"
                }
            ],
            "stateMutability": "nonpayable",
            "type": "function"
        },
        {
            "inputs": [],
            "name": "PublicSale_TGE_Unlock",
            "outputs": [
                {
                    "internalType": "uint256",
                    "name": "amount",
                    "type": "uint256"
                }
            ],
            "stateMutability": "nonpayable",
            "type": "function"
        },
        {
            "inputs": [],
            "name": "SecurityContact",
            "outputs": [
                {
                    "internalType": "string",
                    "name": "",
                    "type": "string"
                }
            ],
            "stateMutability": "pure",
            "type": "function"
        },
        {
            "inputs": [],
            "name": "SustainableDevelopment_TGE_Unlock",
            "outputs": [
                {
                    "internalType": "uint256",
                    "name": "amount",
                    "type": "uint256"
                }
            ],
            "stateMutability": "nonpayable",
            "type": "function"
        },
        {
            "inputs": [],
            "name": "TriggerAIMiningAndStakingScheduledUnlock",
            "outputs": [],
            "stateMutability": "nonpayable",
            "type": "function"
        },
        {
            "inputs": [],
            "name": "TriggerAdvisorsAndStrategicPartnersScheduledUnlock",
            "outputs": [],
            "stateMutability": "nonpayable",
            "type": "function"
        },
        {
            "inputs": [],
            "name": "TriggerBusinessDevelopmentScheduledUnlock",
            "outputs": [],
            "stateMutability": "nonpayable",
            "type": "function"
        },
        {
            "inputs": [],
            "name": "TriggerComunityIncentivesAndRewardsScheduledUnlock",
            "outputs": [],
            "stateMutability": "nonpayable",
            "type": "function"
        },
        {
            "inputs": [],
            "name": "TriggerLiquidityExchangeAndListingScheduledUnlock",
            "outputs": [],
            "stateMutability": "nonpayable",
            "type": "function"
        },
        {
            "inputs": [],
            "name": "TriggerMarketingScheduledUnlock",
            "outputs": [],
            "stateMutability": "nonpayable",
            "type": "function"
        },
        {
            "inputs": [],
            "name": "TriggerPrivateSaleScheduledUnlock",
            "outputs": [],
            "stateMutability": "nonpayable",
            "type": "function"
        },
        {
            "inputs": [],
            "name": "TriggerPublicSaleScheduledUnlock",
            "outputs": [],
            "stateMutability": "nonpayable",
            "type": "function"
        },
        {
            "inputs": [],
            "name": "TriggerStrategicOTCScheduledUnlock",
            "outputs": [],
            "stateMutability": "nonpayable",
            "type": "function"
        },
        {
            "inputs": [],
            "name": "TriggerSustainableDevelopmentScheduledUnlock",
            "outputs": [],
            "stateMutability": "nonpayable",
            "type": "function"
        },
        {
            "inputs": [],
            "name": "TriggerTeamScheduledUnlock",
            "outputs": [],
            "stateMutability": "nonpayable",
            "type": "function"
        },
        {
            "inputs": [],
            "name": "TriggerTokenGenerationEvent",
            "outputs": [],
            "stateMutability": "nonpayable",
            "type": "function"
        },
        {
            "inputs": [
                {
                    "internalType": "address",
                    "name": "owner",
                    "type": "address"
                },
                {
                    "internalType": "address",
                    "name": "spender",
                    "type": "address"
                }
            ],
            "name": "allowance",
            "outputs": [
                {
                    "internalType": "uint256",
                    "name": "",
                    "type": "uint256"
                }
            ],
            "stateMutability": "view",
            "type": "function"
        },
        {
            "inputs": [
                {
                    "internalType": "address",
                    "name": "spender",
                    "type": "address"
                },
                {
                    "internalType": "uint256",
                    "name": "amount",
                    "type": "uint256"
                }
            ],
            "name": "approve",
            "outputs": [
                {
                    "internalType": "bool",
                    "name": "",
                    "type": "bool"
                }
            ],
            "stateMutability": "nonpayable",
            "type": "function"
        },
        {
            "inputs": [
                {
                    "internalType": "address",
                    "name": "account",
                    "type": "address"
                }
            ],
            "name": "balanceOf",
            "outputs": [
                {
                    "internalType": "uint256",
                    "name": "",
                    "type": "uint256"
                }
            ],
            "stateMutability": "view",
            "type": "function"
        },
        {
            "inputs": [
                {
                    "internalType": "address",
                    "name": "account",
                    "type": "address"
                },
                {
                    "internalType": "uint256",
                    "name": "snapshotId",
                    "type": "uint256"
                }
            ],
            "name": "balanceOfAt",
            "outputs": [
                {
                    "internalType": "uint256",
                    "name": "",
                    "type": "uint256"
                }
            ],
            "stateMutability": "view",
            "type": "function"
        },
        {
            "inputs": [],
            "name": "decimals",
            "outputs": [
                {
                    "internalType": "uint8",
                    "name": "",
                    "type": "uint8"
                }
            ],
            "stateMutability": "view",
            "type": "function"
        },
        {
            "inputs": [
                {
                    "internalType": "address",
                    "name": "spender",
                    "type": "address"
                },
                {
                    "internalType": "uint256",
                    "name": "subtractedValue",
                    "type": "uint256"
                }
            ],
            "name": "decreaseAllowance",
            "outputs": [
                {
                    "internalType": "bool",
                    "name": "",
                    "type": "bool"
                }
            ],
            "stateMutability": "nonpayable",
            "type": "function"
        },
        {
            "inputs": [
                {
                    "internalType": "address",
                    "name": "spender",
                    "type": "address"
                },
                {
                    "internalType": "uint256",
                    "name": "addedValue",
                    "type": "uint256"
                }
            ],
            "name": "increaseAllowance",
            "outputs": [
                {
                    "internalType": "bool",
                    "name": "",
                    "type": "bool"
                }
            ],
            "stateMutability": "nonpayable",
            "type": "function"
        },
        {
            "inputs": [],
            "name": "initialize",
            "outputs": [],
            "stateMutability": "nonpayable",
            "type": "function"
        },
        {
            "inputs": [],
            "name": "name",
            "outputs": [
                {
                    "internalType": "string",
                    "name": "",
                    "type": "string"
                }
            ],
            "stateMutability": "view",
            "type": "function"
        },
        {
            "inputs": [],
            "name": "owner",
            "outputs": [
                {
                    "internalType": "address",
                    "name": "",
                    "type": "address"
                }
            ],
            "stateMutability": "view",
            "type": "function"
        },
        {
            "inputs": [],
            "name": "pause",
            "outputs": [],
            "stateMutability": "nonpayable",
            "type": "function"
        },
        {
            "inputs": [],
            "name": "paused",
            "outputs": [
                {
                    "internalType": "bool",
                    "name": "",
                    "type": "bool"
                }
            ],
            "stateMutability": "view",
            "type": "function"
        },
        {
            "inputs": [],
            "name": "renounceOwnership",
            "outputs": [],
            "stateMutability": "nonpayable",
            "type": "function"
        },
        {
            "inputs": [],
            "name": "snapshot",
            "outputs": [],
            "stateMutability": "nonpayable",
            "type": "function"
        },
        {
            "inputs": [],
            "name": "symbol",
            "outputs": [
                {
                    "internalType": "string",
                    "name": "",
                    "type": "string"
                }
            ],
            "stateMutability": "view",
            "type": "function"
        },
        {
            "inputs": [],
            "name": "totalSupply",
            "outputs": [
                {
                    "internalType": "uint256",
                    "name": "",
                    "type": "uint256"
                }
            ],
            "stateMutability": "view",
            "type": "function"
        },
        {
            "inputs": [
                {
                    "internalType": "uint256",
                    "name": "snapshotId",
                    "type": "uint256"
                }
            ],
            "name": "totalSupplyAt",
            "outputs": [
                {
                    "internalType": "uint256",
                    "name": "",
                    "type": "uint256"
                }
            ],
            "stateMutability": "view",
            "type": "function"
        },
        {
            "inputs": [
                {
                    "internalType": "address",
                    "name": "recipient",
                    "type": "address"
                },
                {
                    "internalType": "uint256",
                    "name": "amount",
                    "type": "uint256"
                }
            ],
            "name": "transfer",
            "outputs": [
                {
                    "internalType": "bool",
                    "name": "",
                    "type": "bool"
                }
            ],
            "stateMutability": "nonpayable",
            "type": "function"
        },
        {
            "inputs": [
                {
                    "internalType": "address",
                    "name": "sender",
                    "type": "address"
                },
                {
                    "internalType": "address",
                    "name": "recipient",
                    "type": "address"
                },
                {
                    "internalType": "uint256",
                    "name": "amount",
                    "type": "uint256"
                }
            ],
            "name": "transferFrom",
            "outputs": [
                {
                    "internalType": "bool",
                    "name": "",
                    "type": "bool"
                }
            ],
            "stateMutability": "nonpayable",
            "type": "function"
        },
        {
            "inputs": [
                {
                    "internalType": "address",
                    "name": "newOwner",
                    "type": "address"
                }
            ],
            "name": "transferOwnership",
            "outputs": [],
            "stateMutability": "nonpayable",
            "type": "function"
        },
        {
            "inputs": [],
            "name": "unpause",
            "outputs": [],
            "stateMutability": "nonpayable",
            "type": "function"
        }
    ],
    "bytecode": "60806040523480156200001157600080fd5b50600054610100900460ff16806200002c575060005460ff16155b620000945760405162461bcd60e51b815260206004820152602e60248201527f496e697469616c697a61626c653a20636f6e747261637420697320616c72656160448201526d191e481a5b9a5d1a585b1a5e995960921b606482015260840160405180910390fd5b600054610100900460ff16158015620000b7576000805461ffff19166101011790555b8015620000ca576000805461ff00191690555b50614d9280620000db6000396000f3fe608060405234801561001057600080fd5b50600436106102535760003560e01c80638e5b0fca11610146578063aeca37c7116100c3578063c4a8c35d11610087578063c4a8c35d1461045e578063cee6e03614610466578063dd62ed3e1461046e578063ebf1954a146104a7578063ec7768b1146104af578063f2fde38b146104b757600080fd5b8063aeca37c714610436578063ba3877781461043e578063bbea0b0714610446578063c0a7bb231461044e578063c3f82b161461045657600080fd5b8063a037df751161010a578063a037df75146103f8578063a457c2d714610400578063a546996114610413578063a8f0f06b1461041b578063a9059cbb1461042357600080fd5b80638e5b0fca146103c557806395d89b41146103cd5780639711715a146103d5578063977db5a8146103dd578063981b24d0146103e557600080fd5b80634ee2cd7e116101d45780637bd3cb8b116101985780637bd3cb8b1461038a5780637c2c23f0146103925780638129fc1c1461039a5780638456cb59146103a25780638da5cb5b146103aa57600080fd5b80634ee2cd7e146103335780635bdb62c3146103465780635c975abb1461034e57806370a0823114610359578063715018a61461038257600080fd5b806323b872dd1161021b57806323b872dd146102ee578063313ce56714610301578063331e2a8e1461031057806339509351146103185780633f4ba83a1461032b57600080fd5b806306fdde0314610258578063095ea7b3146102765780630b557d411461029957806318160ddd146102d25780631e9785c9146102e4575b600080fd5b6102606104ca565b60405161026d919061475b565b60405180910390f35b6102896102843660046147c7565b61055c565b604051901515815260200161026d565b60408051808201909152601e81527f56616c69204d616c696e6f6975203c76616c694068756d616e732e61693e00006020820152610260565b6035545b60405190815260200161026d565b6102ec610573565b005b6102896102fc3660046147f1565b610680565b6040516012815260200161026d565b6102d661072a565b6102896103263660046147c7565b61090f565b6102ec61094b565b6102d66103413660046147c7565b61097f565b6102d66109d8565b60c95460ff16610289565b6102d661036736600461482d565b6001600160a01b031660009081526033602052604090205490565b6102ec610a90565b6102ec610ac4565b6102d6610b91565b6102ec610cfb565b6102ec610dc3565b6097546040516001600160a01b03909116815260200161026d565b6102ec610df5565b610260610ec9565b6102ec610ed8565b6102ec610f0a565b6102d66103f3366004614848565b610fb6565b6102d6610fe1565b61028961040e3660046147c7565b611129565b6102ec6111c2565b6102ec611219565b6102896104313660046147c7565b6112e2565b6102ec6112ef565b6102ec6113ac565b6102ec611478565b6102d661154f565b6102ec611607565b6102ec61165e565b6102ec611741565b6102d661047c366004614861565b6001600160a01b03918216600090815260346020908152604080832093909416825291909152205490565b6102d661180c565b6102d6611820565b6102ec6104c536600461482d565b611986565b6060603680546104d990614894565b80601f016020809104026020016040519081016040528092919081815260200182805461050590614894565b80156105525780601f1061052757610100808354040283529160200191610552565b820191906000526020600020905b81548152906001019060200180831161053557829003601f168201915b5050505050905090565b6000610569338484611a1e565b5060015b92915050565b6097546001600160a01b031633146105a65760405162461bcd60e51b815260040161059d906148cf565b60405180910390fd5b6101075460ff166105c95760405162461bcd60e51b815260040161059d90614904565b60006105d3611b42565b90506000811161065f5760405162461bcd60e51b81526020600482015260596024820152600080516020614d1d83398151915260448201527f66726f6d20746865206c69717569646974792065786368616e676520616e642060648201527f6c697374696e67732077616c6c6574207363686564756c652100000000000000608482015260a40161059d565b61067d73edcb0b123c67c6a0c729b74e2df03dbdc23e028482611c09565b50565b600061068d848484611cf4565b6001600160a01b0384166000908152603460209081526040808320338452909152902054828110156107125760405162461bcd60e51b815260206004820152602860248201527f45524332303a207472616e7366657220616d6f756e74206578636565647320616044820152676c6c6f77616e636560c01b606482015260840161059d565b61071f8533858403611a1e565b506001949350505050565b6097546000906001600160a01b031633146107575760405162461bcd60e51b815260040161059d906148cf565b600080526101026020527f565a22c1af7fcc038f06206699a6bd0ad8c85d23dafe9aebac3e0df68e8fb3215460ff16156108335760405162461bcd60e51b815260206004820152607b6024820152600080516020614cfd83398151915260448201527f6174696f6e206576656e7420616d6f756e7420666f7220746865206c6971756960648201527f646974792065786368616e676520616e64206c697374696e67732077616c6c6560848201527f742068617320616c7265616479206265656e20636c61696d656421000000000060a482015260c40161059d565b5060008080526101026020527f565a22c1af7fcc038f06206699a6bd0ad8c85d23dafe9aebac3e0df68e8fb3205460405190919082906108c6907f4c697175696469747920616e642045786368616e6765204c697374696e67732081527f5363686564756c65202d20746f6b656e2067656e65726174696f6e206576656e6020820152601d60fa1b604082015260410190565b60405190819003812042825290600080516020614d3d8339815191529060200160405180910390a461090c73edcb0b123c67c6a0c729b74e2df03dbdc23e028482611c09565b90565b3360008181526034602090815260408083206001600160a01b03871684529091528120549091610569918590610946908690614977565b611a1e565b6097546001600160a01b031633146109755760405162461bcd60e51b815260040161059d906148cf565b61097d611ece565b565b6001600160a01b0382166000908152606560205260408120819081906109a6908590611f61565b91509150816109cd576001600160a01b0385166000908152603360205260409020546109cf565b805b95945050505050565b6097546000906001600160a01b03163314610a055760405162461bcd60e51b815260040161059d906148cf565b600080526101046020527f0c81ce4857d5b94b8c75139d9e9e2911ece8cd067eddba6000e40a08e09d56445460ff1615610a515760405162461bcd60e51b815260040161059d9061498f565b5060008080526101046020527f0c81ce4857d5b94b8c75139d9e9e2911ece8cd067eddba6000e40a08e09d56435460405190919082906108c690614a19565b6097546001600160a01b03163314610aba5760405162461bcd60e51b815260040161059d906148cf565b61097d6000612058565b6097546001600160a01b03163314610aee5760405162461bcd60e51b815260040161059d906148cf565b6101075460ff16610b115760405162461bcd60e51b815260040161059d90614904565b6000610b1b6120aa565b90506000811161065f5760405162461bcd60e51b81526020600482015260476024820152600080516020614d1d83398151915260448201527f66726f6d2074686520737472617465676963206f74632077616c6c6574207363606482015266686564756c652160c81b608482015260a40161059d565b6097546000906001600160a01b03163314610bbe5760405162461bcd60e51b815260040161059d906148cf565b6000805260fb6020527fc88390e7e62175be0932452175b6a7222b6b094ab0ef984a5153c620345d89765460ff1615610c835760405162461bcd60e51b81526020600482015260676024820152600080516020614cfd83398151915260448201527f6174696f6e206576656e7420616d6f756e7420666f7220746865207075626c6960648201527f632073616c652077616c6c65742068617320616c7265616479206265656e20636084820152666c61696d65642160c81b60a482015260c40161059d565b50600080805260fb6020527fc88390e7e62175be0932452175b6a7222b6b094ab0ef984a5153c620345d89755460405190919082906108c6907f5075626c69632053616c65205363686564756c65202d20746f6b656e2067656e81526c195c985d1a5bdb88195d995b9d609a1b6020820152602d0190565b600054610100900460ff1680610d14575060005460ff16155b610d305760405162461bcd60e51b815260040161059d90614a58565b600054610100900460ff16158015610d52576000805461ffff19166101011790555b610d976040518060400160405280600681526020016548554d414e5360d01b81525060405180604001604052806005815260200164121150549560da1b81525061216d565b610d9f6121ed565b610da7612254565b610daf6122bb565b801561067d576000805461ff001916905550565b6097546001600160a01b03163314610ded5760405162461bcd60e51b815260040161059d906148cf565b61097d612322565b6097546001600160a01b03163314610e1f5760405162461bcd60e51b815260040161059d906148cf565b6101075460ff16610e425760405162461bcd60e51b815260040161059d90614904565b6000610e4c61239d565b90506000811161065f5760405162461bcd60e51b815260206004820152604e6024820152600080516020614d1d83398151915260448201527f66726f6d2074686520627573696e65737320646576656c6f706d656e7420776160648201526d6c6c6574207363686564756c652160901b608482015260a40161059d565b6060603780546104d990614894565b6097546001600160a01b03163314610f025760405162461bcd60e51b815260040161059d906148cf565b61067d61249f565b6097546001600160a01b03163314610f345760405162461bcd60e51b815260040161059d906148cf565b6101075460ff1615610fae5760405162461bcd60e51b815260206004820152603760248201527f48756d616e7320546f6b656e3a20546f6b656e2047656e65726174696f6e204560448201527f76656e7420616c72656164792074726967676572656421000000000000000000606482015260840161059d565b61097d6124f9565b6000806000610fc6846066611f61565b9150915081610fd757603554610fd9565b805b949350505050565b6097546000906001600160a01b0316331461100e5760405162461bcd60e51b815260040161059d906148cf565b600080526101036020527ff167d7e9ac6011f0b837eaede5176b30419264c8a43ec5db1d59bf93c98c1f805460ff16156110ea5760405162461bcd60e51b815260206004820152607c6024820152600080516020614cfd83398151915260448201527f6174696f6e206576656e7420616d6f756e7420666f722074686520737573746160648201527f696e61626c6520646576656c6f706d656e74207363686564756c652077616c6c60848201527f65742068617320616c7265616479206265656e20636c61696d6564210000000060a482015260c40161059d565b5060008080526101036020527ff167d7e9ac6011f0b837eaede5176b30419264c8a43ec5db1d59bf93c98c1f7f5460405190919082906108c690614a19565b3360009081526034602090815260408083206001600160a01b0386168452909152812054828110156111ab5760405162461bcd60e51b815260206004820152602560248201527f45524332303a2064656372656173656420616c6c6f77616e63652062656c6f77604482015264207a65726f60d81b606482015260840161059d565b6111b83385858403611a1e565b5060019392505050565b6097546001600160a01b031633146111ec5760405162461bcd60e51b815260040161059d906148cf565b6101075460ff1661120f5760405162461bcd60e51b815260040161059d90614904565b6000610e4c61392c565b6097546001600160a01b031633146112435760405162461bcd60e51b815260040161059d906148cf565b6101075460ff166112665760405162461bcd60e51b815260040161059d90614904565b6000611270613a2f565b90506000811161065f5760405162461bcd60e51b81526020600482015260436024820152600080516020614d1d83398151915260448201527f66726f6d20746865206d61726b6574696e672077616c6c6574207363686564756064820152626c652160e81b608482015260a40161059d565b6000610569338484611cf4565b6097546001600160a01b031633146113195760405162461bcd60e51b815260040161059d906148cf565b6101075460ff1661133c5760405162461bcd60e51b815260040161059d90614904565b6000611346613af2565b90506000811161065f5760405162461bcd60e51b815260206004820152603e6024820152600080516020614d1d83398151915260448201527f66726f6d20746865207465616d2077616c6c6574207363686564756c65210000606482015260840161059d565b6097546001600160a01b031633146113d65760405162461bcd60e51b815260040161059d906148cf565b6101075460ff166113f95760405162461bcd60e51b815260040161059d90614904565b6000611403613be1565b90506000811161065f5760405162461bcd60e51b81526020600482015260466024820152600080516020614d1d83398151915260448201527f66726f6d2074686520707269766174652073616c652077616c6c6574207363686064820152656564756c652160d01b608482015260a40161059d565b6097546001600160a01b031633146114a25760405162461bcd60e51b815260040161059d906148cf565b6101075460ff166114c55760405162461bcd60e51b815260040161059d90614904565b60006114cf613cd8565b90506000811161065f5760405162461bcd60e51b81526020600482015260516024820152600080516020614d1d83398151915260448201527f66726f6d20746865207375737461696e61626c6520646576656c6f706d656e746064820152702077616c6c6574207363686564756c652160781b608482015260a40161059d565b6097546000906001600160a01b0316331461157c5760405162461bcd60e51b815260040161059d906148cf565b600080526101056020527fa5baec7d73105a3c7298203bb205bbc41b63fa384ae73a6016b890a7ca29ae2e5460ff16156115c85760405162461bcd60e51b815260040161059d9061498f565b5060008080526101056020527fa5baec7d73105a3c7298203bb205bbc41b63fa384ae73a6016b890a7ca29ae2d5460405190919082906108c690614a19565b6097546001600160a01b031633146116315760405162461bcd60e51b815260040161059d906148cf565b6101075460ff166116545760405162461bcd60e51b815260040161059d90614904565b6000611270613ddd565b6097546001600160a01b031633146116885760405162461bcd60e51b815260040161059d906148cf565b6101075460ff166116ab5760405162461bcd60e51b815260040161059d90614904565b60006116b5613ea0565b90506000811161065f5760405162461bcd60e51b81526020600482015260596024820152600080516020614d1d83398151915260448201527f66726f6d2074686520636f6d756e69747920696e63656e746976657320616e6460648201527f20726577617264732077616c6c6574207363686564756c652100000000000000608482015260a40161059d565b6097546001600160a01b0316331461176b5760405162461bcd60e51b815260040161059d906148cf565b6101075460ff1661178e5760405162461bcd60e51b815260040161059d90614904565b6000611798613faa565b90506000811161065f5760405162461bcd60e51b81526020600482015260456024820152600080516020614d1d83398151915260448201527f66726f6d20746865207075626c69632073616c652077616c6c6574207363686560648201526464756c652160d81b608482015260a40161059d565b600061181b61010654426140a0565b905090565b6097546000906001600160a01b0316331461184d5760405162461bcd60e51b815260040161059d906148cf565b6000805260ff60208190527f03d616f3758432b4d7452e2e9011612152589bfc903ce751686613c478b2af605416156119105760405162461bcd60e51b81526020600482015260656024820152600080516020614cfd83398151915260448201527f6174696f6e206576656e7420616d6f756e7420666f7220746865206d61726b6560648201527f74696e672077616c6c65742068617320616c7265616479206265656e20636c61608482015264696d65642160d81b60a482015260c40161059d565b50600080805260ff6020527f03d616f3758432b4d7452e2e9011612152589bfc903ce751686613c478b2af5f5460405190919082906108c6907f4d61726b6574696e67205363686564756c65202d20746f6b656e2067656e657281526a185d1a5bdb88195d995b9d60aa1b6020820152602b0190565b6097546001600160a01b031633146119b05760405162461bcd60e51b815260040161059d906148cf565b6001600160a01b038116611a155760405162461bcd60e51b815260206004820152602660248201527f4f776e61626c653a206e6577206f776e657220697320746865207a65726f206160448201526564647265737360d01b606482015260840161059d565b61067d81612058565b6001600160a01b038316611a805760405162461bcd60e51b8152602060048201526024808201527f45524332303a20617070726f76652066726f6d20746865207a65726f206164646044820152637265737360e01b606482015260840161059d565b6001600160a01b038216611ae15760405162461bcd60e51b815260206004820152602260248201527f45524332303a20617070726f766520746f20746865207a65726f206164647265604482015261737360f01b606482015260840161059d565b6001600160a01b0383811660008181526034602090815260408083209487168084529482529182902085905590518481527f8c5be1e5ebec7d5bd14f71427d1e84f3dd0314c0f7b2291e5b200ac8c7c3b925910160405180910390a3505050565b600080611b5261010654426140a0565b90505b8015611c055760008181526101026020526040902060019081015460ff1615151415611b7f575090565b6000818152610102602052604090206001818101805460ff1916909117905554611ba99083614977565b60008281526101026020526040908190205490519193508291611bcb90614aa6565b60405190819003812042825290600080516020614d3d8339815191529060200160405180910390a480611bfd81614ae3565b915050611b55565b5090565b6001600160a01b038216611c5f5760405162461bcd60e51b815260206004820152601f60248201527f45524332303a206d696e7420746f20746865207a65726f206164647265737300604482015260640161059d565b611c6b60008383614127565b8060356000828254611c7d9190614977565b90915550506001600160a01b03821660009081526033602052604081208054839290611caa908490614977565b90915550506040518181526001600160a01b038316906000907fddf252ad1be2c89b69c2b068fc378daa952ba7f163c4a11628f55a4df523b3ef9060200160405180910390a35050565b6001600160a01b038316611d585760405162461bcd60e51b815260206004820152602560248201527f45524332303a207472616e736665722066726f6d20746865207a65726f206164604482015264647265737360d81b606482015260840161059d565b6001600160a01b038216611dba5760405162461bcd60e51b815260206004820152602360248201527f45524332303a207472616e7366657220746f20746865207a65726f206164647260448201526265737360e81b606482015260840161059d565b611dc5838383614127565b6001600160a01b03831660009081526033602052604090205481811015611e3d5760405162461bcd60e51b815260206004820152602660248201527f45524332303a207472616e7366657220616d6f756e7420657863656564732062604482015265616c616e636560d01b606482015260840161059d565b6001600160a01b03808516600090815260336020526040808220858503905591851681529081208054849290611e74908490614977565b92505081905550826001600160a01b0316846001600160a01b03167fddf252ad1be2c89b69c2b068fc378daa952ba7f163c4a11628f55a4df523b3ef84604051611ec091815260200190565b60405180910390a350505050565b60c95460ff16611f175760405162461bcd60e51b815260206004820152601460248201527314185d5cd8589b194e881b9bdd081c185d5cd95960621b604482015260640161059d565b60c9805460ff191690557f5db9ee0a495bf2e6ff9c91a7834c1ba4fdd244a5e8aa4e537bd38aeae4b073aa335b6040516001600160a01b03909116815260200160405180910390a1565b60008060008411611fad5760405162461bcd60e51b815260206004820152601660248201527504552433230536e617073686f743a20696420697320360541b604482015260640161059d565b611fb5614178565b8411156120045760405162461bcd60e51b815260206004820152601d60248201527f4552433230536e617073686f743a206e6f6e6578697374656e74206964000000604482015260640161059d565b60006120108486614183565b8454909150811415612029576000809250925050612051565b600184600101828154811061204057612040614afa565b906000526020600020015492509250505b9250929050565b609780546001600160a01b038381166001600160a01b0319831681179093556040519116919082907f8be0079c531659141344cd1fd0a4f28419497f9722a3daafe3b4186f6b6457e090600090a35050565b6000806120ba61010654426140a0565b90505b8015611c055760008181526101016020526040902060019081015460ff16151514156120e7575090565b6000818152610101602052604090206001818101805460ff19169091179055546121119083614977565b6000828152610101602052604090819020549051919350829161213390614aa6565b60405190819003812042825290600080516020614d3d8339815191529060200160405180910390a48061216581614ae3565b9150506120bd565b600054610100900460ff1680612186575060005460ff16155b6121a25760405162461bcd60e51b815260040161059d90614a58565b600054610100900460ff161580156121c4576000805461ffff19166101011790555b6121cc614246565b6121d683836142b0565b80156121e8576000805461ff00191690555b505050565b600054610100900460ff1680612206575060005460ff16155b6122225760405162461bcd60e51b815260040161059d90614a58565b600054610100900460ff16158015612244576000805461ffff19166101011790555b61224c614246565b610daf614246565b600054610100900460ff168061226d575060005460ff16155b6122895760405162461bcd60e51b815260040161059d90614a58565b600054610100900460ff161580156122ab576000805461ffff19166101011790555b6122b3614246565b610daf614345565b600054610100900460ff16806122d4575060005460ff16155b6122f05760405162461bcd60e51b815260040161059d90614a58565b600054610100900460ff16158015612312576000805461ffff19166101011790555b61231a614246565b610daf6143a5565b60c95460ff16156123685760405162461bcd60e51b815260206004820152601060248201526f14185d5cd8589b194e881c185d5cd95960821b604482015260640161059d565b60c9805460ff191660011790557f62e78cea01bee320cd4e420270b5ea74000d11b0c9f74754ebdbfc544b05a258611f443390565b6000806123ad61010654426140a0565b90505b8015611c055760008181526101046020526040902060019081015460ff16151514156123da575090565b6000818152610104602052604090206001818101805460ff19169091179055546124049083614977565b60008281526101046020526040908190205490519193508291612465907f427573696e65737320446576656c6f706d656e74205363686564756c65202d208152711cd8da19591d5b1959081d5b9b1bd8dad95960721b602082015260320190565b60405190819003812042825290600080516020614d3d8339815191529060200160405180910390a48061249781614ae3565b9150506123b0565b60006124af606880546001019055565b60006124b9614178565b90507f8030e83b04d87bef53480e26263266d6ca66863aa8506aca6f2559d18aa1cb67816040516124ec91815260200190565b60405180910390a1919050565b4261010681905550600161010760006101000a81548160ff02191690831515021790555060405180604001604052806a2042923c8138338700000081526020016000151581525060fb60008081526020019081526020016000206000820151816000015560208201518160010160006101000a81548160ff02191690831515021790555090505060405180604001604052806a1021491e409c19c380000081526020016000151581525060fb6000600181526020019081526020016000206000820151816000015560208201518160010160006101000a81548160ff02191690831515021790555090505060405180604001604052806a1021491e409c19c380000081526020016000151581525060fb6000600281526020019081526020016000206000820151816000015560208201518160010160006101000a81548160ff02191690831515021790555090505060405180604001604052806a3063db5ac1d44d4a80000081526020016000151581525060fc6000600681526020019081526020016000206000820151816000015560208201518160010160006101000a81548160ff02191690831515021790555090505060405180604001604052806a3063db5ac1d44d4a80000081526020016000151581525060fc6000600981526020019081526020016000206000820151816000015560208201518160010160006101000a81548160ff02191690831515021790555090505060405180604001604052806a3063db5ac1d44d4a80000081526020016000151581525060fc6000600c81526020019081526020016000206000820151816000015560208201518160010160006101000a81548160ff02191690831515021790555090505060405180604001604052806a3063db5ac1d44d4a80000081526020016000151581525060fc6000600f81526020019081526020016000206000820151816000015560208201518160010160006101000a81548160ff02191690831515021790555090505060405180604001604052806a810a48f204e0ce1c00000081526020016000151581525060fd6000600381526020019081526020016000206000820151816000015560208201518160010160006101000a81548160ff02191690831515021790555090505060405180604001604052806b01021491e409c19c3800000081526020016000151581525060fd6000600681526020019081526020016000206000820151816000015560208201518160010160006101000a81548160ff02191690831515021790555090505060405180604001604052806a810a48f204e0ce1c00000081526020016000151581525060fd6000600981526020019081526020016000206000820151816000015560208201518160010160006101000a81548160ff02191690831515021790555090505060405180604001604052806b01021491e409c19c3800000081526020016000151581525060fd6000600c81526020019081526020016000206000820151816000015560208201518160010160006101000a81548160ff02191690831515021790555090505060405180604001604052806a810a48f204e0ce1c00000081526020016000151581525060fd6000600f81526020019081526020016000206000820151816000015560208201518160010160006101000a81548160ff02191690831515021790555090505060405180604001604052806b01021491e409c19c3800000081526020016000151581525060fd6000601281526020019081526020016000206000820151816000015560208201518160010160006101000a81548160ff02191690831515021790555090505060405180604001604052806a810a48f204e0ce1c00000081526020016000151581525060fd6000601581526020019081526020016000206000820151816000015560208201518160010160006101000a81548160ff02191690831515021790555090505060405180604001604052806a408524790270670e00000081526020016000151581525060fe6000600d81526020019081526020016000206000820151816000015560208201518160010160006101000a81548160ff02191690831515021790555090505060405180604001604052806a408524790270670e00000081526020016000151581525060fe6000601381526020019081526020016000206000820151816000015560208201518160010160006101000a81548160ff02191690831515021790555090505060405180604001604052806a60c7b6b583a89a9500000081526020016000151581525060fe6000601981526020019081526020016000206000820151816000015560208201518160010160006101000a81548160ff02191690831515021790555090505060405180604001604052806a60c7b6b583a89a9500000081526020016000151581525060fe6000601f81526020019081526020016000206000820151816000015560208201518160010160006101000a81548160ff02191690831515021790555090505060405180604001604052806a60c7b6b583a89a9500000081526020016000151581525060fe6000602581526020019081526020016000206000820151816000015560208201518160010160006101000a81548160ff02191690831515021790555090505060405180604001604052806a60c7b6b583a89a9500000081526020016000151581525060fe6000602b81526020019081526020016000206000820151816000015560208201518160010160006101000a81548160ff02191690831515021790555090505060405180604001604052806a810a48f204e0ce1c00000081526020016000151581525060fe6000603181526020019081526020016000206000820151816000015560208201518160010160006101000a81548160ff02191690831515021790555090505060405180604001604052806a0422ca8b0a00a42500000081526020016000151581525060ff60008081526020019081526020016000206000820151816000015560208201518160010160006101000a81548160ff02191690831515021790555090505060405180604001604052806a31a17e847807b1bc00000081526020016000151581525060ff6000600381526020019081526020016000206000820151816000015560208201518160010160006101000a81548160ff02191690831515021790555090505060405180604001604052806a31a17e847807b1bc00000081526020016000151581525060ff6000600481526020019081526020016000206000820151816000015560208201518160010160006101000a81548160ff02191690831515021790555090505060405180604001604052806a31a17e847807b1bc00000081526020016000151581525060ff6000600581526020019081526020016000206000820151816000015560208201518160010160006101000a81548160ff02191690831515021790555090505060405180604001604052806a108b2a2c2802909400000081526020016000151581525060ff6000600681526020019081526020016000206000820151816000015560208201518160010160006101000a81548160ff02191690831515021790555090505060405180604001604052806a108b2a2c2802909400000081526020016000151581525060ff6000600781526020019081526020016000206000820151816000015560208201518160010160006101000a81548160ff02191690831515021790555090505060405180604001604052806a108b2a2c2802909400000081526020016000151581525060ff6000600881526020019081526020016000206000820151816000015560208201518160010160006101000a81548160ff02191690831515021790555090505060405180604001604052806a108b2a2c2802909400000081526020016000151581525060ff6000600981526020019081526020016000206000820151816000015560208201518160010160006101000a81548160ff02191690831515021790555090505060405180604001604052806a108b2a2c2802909400000081526020016000151581525060ff6000600a81526020019081526020016000206000820151816000015560208201518160010160006101000a81548160ff02191690831515021790555090505060405180604001604052806a108b2a2c2802909400000081526020016000151581525060ff6000600b81526020019081526020016000206000820151816000015560208201518160010160006101000a81548160ff02191690831515021790555090505060405180604001604052806a108b2a2c2802909400000081526020016000151581525060ff6000600c81526020019081526020016000206000820151816000015560208201518160010160006101000a81548160ff02191690831515021790555090505060405180604001604052806a108b2a2c2802909400000081526020016000151581525060ff6000600d81526020019081526020016000206000820151816000015560208201518160010160006101000a81548160ff02191690831515021790555090505060405180604001604052806a108b2a2c2802909400000081526020016000151581525060ff6000600e81526020019081526020016000206000820151816000015560208201518160010160006101000a81548160ff02191690831515021790555090505060405180604001604052806a14adf4b7320334b900000081526020016000151581525060ff6000600f81526020019081526020016000206000820151816000015560208201518160010160006101000a81548160ff02191690831515021790555090505060405180604001604052806a2042923c813833870000008152602001600015158152506101006000600d81526020019081526020016000206000820151816000015560208201518160010160006101000a81548160ff02191690831515021790555090505060405180604001604052806a2042923c813833870000008152602001600015158152506101006000601381526020019081526020016000206000820151816000015560208201518160010160006101000a81548160ff02191690831515021790555090505060405180604001604052806a3063db5ac1d44d4a8000008152602001600015158152506101006000601981526020019081526020016000206000820151816000015560208201518160010160006101000a81548160ff02191690831515021790555090505060405180604001604052806a3063db5ac1d44d4a8000008152602001600015158152506101006000601f81526020019081526020016000206000820151816000015560208201518160010160006101000a81548160ff02191690831515021790555090505060405180604001604052806a3063db5ac1d44d4a8000008152602001600015158152506101006000602581526020019081526020016000206000820151816000015560208201518160010160006101000a81548160ff02191690831515021790555090505060405180604001604052806a3063db5ac1d44d4a8000008152602001600015158152506101006000602a81526020019081526020016000206000820151816000015560208201518160010160006101000a81548160ff02191690831515021790555090505060405180604001604052806a408524790270670e0000008152602001600015158152506101006000603181526020019081526020016000206000820151816000015560208201518160010160006101000a81548160ff02191690831515021790555090505060405180604001604052806a50a66d97430c80d18000008152602001600015158152506101016000600381526020019081526020016000206000820151816000015560208201518160010160006101000a81548160ff02191690831515021790555090505060405180604001604052806a50a66d97430c80d18000008152602001600015158152506101016000600781526020019081526020016000206000820151816000015560208201518160010160006101000a81548160ff02191690831515021790555090505060405180604001604052806a50a66d97430c80d18000008152602001600015158152506101016000601281526020019081526020016000206000820151816000015560208201518160010160006101000a81548160ff02191690831515021790555090505060405180604001604052806a50a66d97430c80d18000008152602001600015158152506101016000601881526020019081526020016000206000820151816000015560208201518160010160006101000a81548160ff02191690831515021790555090505060405180604001604052806ac18f6d6b0751352a00000081526020016000151581525061010260008081526020019081526020016000206000820151816000015560208201518160010160006101000a81548160ff02191690831515021790555090505060405180604001604052806a60c7b6b583a89a950000008152602001600015158152506101026000600381526020019081526020016000206000820151816000015560208201518160010160006101000a81548160ff02191690831515021790555090505060405180604001604052806a60c7b6b583a89a950000008152602001600015158152506101026000600681526020019081526020016000206000820151816000015560208201518160010160006101000a81548160ff02191690831515021790555090505060005b60318160ff161161067d576040805180820182526a0ce76db1cd49ae360000008082526000602080840182815260ff871680845261010383528684209551865590516001958601805491151560ff199283161790558651808801885294855284830184815282855261010484528785209551865551948601805495151595821695909517909455855180870187526a2042923c81383387000000815280830184815291845261010590925294909120905181559251929091018054921515929091169190911790558061392481614b10565b915050613852565b60008061393c61010654426140a0565b90505b8015611c055760008181526101056020526040902060019081015460ff1615151415613969575090565b6000818152610105602052604090206001818101805460ff19169091179055546139939083614977565b600082815261010560205260409081902054905191935082916139f5907f4149204d696e696e6720616e64205374616b696e67205363686564756c65202d815272081cd8da19591d5b1959081d5b9b1bd8dad959606a1b602082015260330190565b60405190819003812042825290600080516020614d3d8339815191529060200160405180910390a480613a2781614ae3565b91505061393f565b600080613a3f61010654426140a0565b90505b8015611c0557600081815260ff6020819052604090912060019081015490911615151415613a6e575090565b600081815260ff602052604090206001818101805460ff1916909117905554613a979083614977565b600082815260ff6020526040908190205490519193508291613ab890614b30565b60405190819003812042825290600080516020614d3d8339815191529060200160405180910390a480613aea81614ae3565b915050613a42565b600080613b0261010654426140a0565b90505b8015611c0557600081815260fe6020526040902060019081015460ff1615151415613b2e575090565b600081815260fe602052604090206001818101805460ff1916909117905554613b579083614977565b600082815260fe6020526040908190205490519193508291613ba7907f5465616d205363686564756c65202d207363686564756c656420756e6c6f636b815261195960f21b602082015260220190565b60405190819003812042825290600080516020614d3d8339815191529060200160405180910390a480613bd981614ae3565b915050613b05565b600080613bf161010654426140a0565b90505b8015611c0557600081815260fd6020526040902060019081015460ff1615151415613c1d575090565b600081815260fd602052604090206001818101805460ff1916909117905554613c469083614977565b600082815260fd6020526040908190205490519193508291613c9e907f507269766174652053616c65205363686564756c65202d207363686564756c6581526919081d5b9b1bd8dad95960b21b6020820152602a0190565b60405190819003812042825290600080516020614d3d8339815191529060200160405180910390a480613cd081614ae3565b915050613bf4565b600080613ce861010654426140a0565b90505b8015611c055760008181526101036020526040902060019081015460ff1615151415613d15575090565b6000818152610103602052604090206001818101805460ff1916909117905554613d3f9083614977565b60008281526101036020526040908190205490519193508291613da3907f5375737461696e61626c6520446576656c6f706d656e74205363686564756c65815274080b481cd8da19591d5b1959081d5b9b1bd8dad959605a1b602082015260350190565b60405190819003812042825290600080516020614d3d8339815191529060200160405180910390a480613dd581614ae3565b915050613ceb565b600080613ded61010654426140a0565b90505b8015611c055760008181526101006020526040902060019081015460ff1615151415613e1a575090565b6000818152610100602052604090206001818101805460ff1916909117905554613e449083614977565b60008281526101006020526040908190205490519193508291613e6690614b30565b60405190819003812042825290600080516020614d3d8339815191529060200160405180910390a480613e9881614ae3565b915050613df0565b600080613eb061010654426140a0565b90505b8015611c0557600081815260fc6020526040902060019081015460ff1615151415613edc575090565b600081815260fc602052604090206001818101805460ff1916909117905554613f059083614977565b600082815260fc6020526040908190205490519193508291613f70907f436f6d756e69747920496e63656e746976657320616e6420526577617264732081527f5363686564756c65202d207363686564756c656420756e6c6f636b65640000006020820152603d0190565b60405190819003812042825290600080516020614d3d8339815191529060200160405180910390a480613fa281614ae3565b915050613eb3565b600080613fba61010654426140a0565b90505b8015611c0557600081815260fb6020526040902060019081015460ff1615151415613fe6575090565b600081815260fb602052604090206001818101805460ff191690911790555461400f9083614977565b600082815260fb6020526040908190205490519193508291614066907f5075626c69632053616c65205363686564756c65202d207363686564756c6564815268081d5b9b1bd8dad95960ba1b602082015260290190565b60405190819003812042825290600080516020614d3d8339815191529060200160405180910390a48061409881614ae3565b915050613fbd565b6000818311156140af57600080fd5b6000806140c76140c26201518087614b7f565b61441a565b5090925090506000806140e06140c26201518088614b7f565b509092509050826140f285600c614b93565b826140fe85600c614b93565b6141089190614977565b6141129190614bb2565b61411c9190614bb2565b979650505050505050565b60c95460ff161561416d5760405162461bcd60e51b815260206004820152601060248201526f14185d5cd8589b194e881c185d5cd95960821b604482015260640161059d565b6121e883838361458e565b600061181b60685490565b81546000906141945750600061056d565b82546000905b808210156141f05760006141ae83836145d6565b9050848682815481106141c3576141c3614afa565b906000526020600020015411156141dc578091506141ea565b6141e7816001614977565b92505b5061419a565b60008211801561422557508385614208600185614bb2565b8154811061421857614218614afa565b9060005260206000200154145b1561423e57614235600183614bb2565b9250505061056d565b50905061056d565b600054610100900460ff168061425f575060005460ff16155b61427b5760405162461bcd60e51b815260040161059d90614a58565b600054610100900460ff16158015610daf576000805461ffff1916610101179055801561067d576000805461ff001916905550565b600054610100900460ff16806142c9575060005460ff16155b6142e55760405162461bcd60e51b815260040161059d90614a58565b600054610100900460ff16158015614307576000805461ffff19166101011790555b825161431a9060369060208601906146cb565b50815161432e9060379060208501906146cb565b5080156121e8576000805461ff0019169055505050565b600054610100900460ff168061435e575060005460ff16155b61437a5760405162461bcd60e51b815260040161059d90614a58565b600054610100900460ff1615801561439c576000805461ffff19166101011790555b610daf33612058565b600054610100900460ff16806143be575060005460ff16155b6143da5760405162461bcd60e51b815260040161059d90614a58565b600054610100900460ff161580156143fc576000805461ffff19166101011790555b60c9805460ff19169055801561067d576000805461ff001916905550565b60008080838162253d8c6144318362010bd9614bc9565b61443b9190614bc9565b9050600062023ab161444e836004614c0a565b6144589190614c8f565b905060046144698262023ab1614c0a565b614474906003614bc9565b61447e9190614c8f565b6144889083614cbd565b9150600062164b0961449b846001614bc9565b6144a790610fa0614c0a565b6144b19190614c8f565b905060046144c1826105b5614c0a565b6144cb9190614c8f565b6144d59084614cbd565b6144e090601f614bc9565b9250600061098f6144f2856050614c0a565b6144fc9190614c8f565b90506000605061450e8361098f614c0a565b6145189190614c8f565b6145229086614cbd565b905061452f600b83614c8f565b945061453c85600c614c0a565b614547836002614bc9565b6145519190614cbd565b91508483614560603187614cbd565b61456b906064614c0a565b6145759190614bc9565b61457f9190614bc9565b9a919950975095505050505050565b6001600160a01b0383166145ad576145a5826145f8565b6121e861462b565b6001600160a01b0382166145c4576145a5836145f8565b6145cd836145f8565b6121e8826145f8565b60006145e56002848418614b7f565b6145f190848416614977565b9392505050565b6001600160a01b038116600090815260656020908152604080832060339092529091205461067d9190614639565b614639565b61097d606661462660355490565b6000614643614178565b90508061464f84614683565b10156121e8578254600180820185556000858152602080822090930193909355938401805494850181558252902090910155565b805460009061469457506000919050565b815482906146a490600190614bb2565b815481106146b4576146b4614afa565b90600052602060002001549050919050565b919050565b8280546146d790614894565b90600052602060002090601f0160209004810192826146f9576000855561473f565b82601f1061471257805160ff191683800117855561473f565b8280016001018555821561473f579182015b8281111561473f578251825591602001919060010190614724565b50611c059291505b80821115611c055760008155600101614747565b600060208083528351808285015260005b818110156147885785810183015185820160400152820161476c565b8181111561479a576000604083870101525b50601f01601f1916929092016040019392505050565b80356001600160a01b03811681146146c657600080fd5b600080604083850312156147da57600080fd5b6147e3836147b0565b946020939093013593505050565b60008060006060848603121561480657600080fd5b61480f846147b0565b925061481d602085016147b0565b9150604084013590509250925092565b60006020828403121561483f57600080fd5b6145f1826147b0565b60006020828403121561485a57600080fd5b5035919050565b6000806040838503121561487457600080fd5b61487d836147b0565b915061488b602084016147b0565b90509250929050565b600181811c908216806148a857607f821691505b602082108114156148c957634e487b7160e01b600052602260045260246000fd5b50919050565b6020808252818101527f4f776e61626c653a2063616c6c6572206973206e6f7420746865206f776e6572604082015260600190565b60208082526037908201527f48756d616e7320546f6b656e3a20546f6b656e2047656e65726174696f6e204560408201527f76656e7420776173206e6f742074726967676572656421000000000000000000606082015260800190565b634e487b7160e01b600052601160045260246000fd5b6000821982111561498a5761498a614961565b500190565b6020808252607090820152600080516020614cfd83398151915260408201527f6174696f6e206576656e7420616d6f756e7420666f722074686520627573696e60608201527f65737320646576656c6f706d656e742077616c6c65742068617320616c72656160808201526f6479206265656e20636c61696d65642160801b60a082015260c00190565b7f5375737461696e61626c65205363686564756c65202d20746f6b656e2067656e81526c195c985d1a5bdb88195d995b9d609a1b6020820152602d0190565b6020808252602e908201527f496e697469616c697a61626c653a20636f6e747261637420697320616c72656160408201526d191e481a5b9a5d1a585b1a5e995960921b606082015260800190565b7f537472617465676963204f5443205363686564756c65202d207363686564756c81526a1959081d5b9b1bd8dad95960aa1b6020820152602b0190565b600081614af257614af2614961565b506000190190565b634e487b7160e01b600052603260045260246000fd5b600060ff821660ff811415614b2757614b27614961565b60010192915050565b7f4d61726b6574696e67205363686564756c65202d207363686564756c656420758152661b9b1bd8dad95960ca1b602082015260270190565b634e487b7160e01b600052601260045260246000fd5b600082614b8e57614b8e614b69565b500490565b6000816000190483118215151615614bad57614bad614961565b500290565b600082821015614bc457614bc4614961565b500390565b600080821280156001600160ff1b0384900385131615614beb57614beb614961565b600160ff1b8390038412811615614c0457614c04614961565b50500190565b60006001600160ff1b0381841382841380821686840486111615614c3057614c30614961565b600160ff1b6000871282811687830589121615614c4f57614c4f614961565b60008712925087820587128484161615614c6b57614c6b614961565b87850587128184161615614c8157614c81614961565b505050929093029392505050565b600082614c9e57614c9e614b69565b600160ff1b821460001984141615614cb857614cb8614961565b500590565b60008083128015600160ff1b850184121615614cdb57614cdb614961565b6001600160ff1b0384018313811615614cf657614cf6614961565b5050039056fe556e6c6f636b205363686564756c653a2054686520746f6b656e2067656e657248756d616e7320546f6b656e3a206e6f7468696e6720746f20756e6c6f636b20ea03506eb59acb33eaaf9b92a96662575ef845f124651b9d86d5a5b91dab1a1ca264697066735822122002a70d8dbee827d0e8574581b0ac6e52a7e620e15ad389a90b50616b6b36515d64736f6c634300080a0033",
    "sourcePath": "/volumes/code/humans/smartcontract/contracts/HumansToken.sol",
    "compiler": {
        "name": "solc",
        "version": "0.8.10+commit.fc410830"
    },
    "functionHashes": {
        "AiMiningAndStaking_TGE_Unlock()": "c0a7bb23",
        "BusinessDevelopment_TGE_Unlock()": "5bdb62c3",
        "CurrentScheduleMonth()": "ebf1954a",
        "LiquidityExchangeAndListings_TGE_Unlock()": "331e2a8e",
        "Marketing_TGE_Unlock()": "ec7768b1",
        "PublicSale_TGE_Unlock()": "7c2c23f0",
        "SecurityContact()": "0b557d41",
        "SustainableDevelopment_TGE_Unlock()": "a037df75",
        "TriggerAIMiningAndStakingScheduledUnlock()": "a5469961",
        "TriggerAdvisorsAndStrategicPartnersScheduledUnlock()": "c3f82b16",
        "TriggerBusinessDevelopmentScheduledUnlock()": "8e5b0fca",
        "TriggerComunityIncentivesAndRewardsScheduledUnlock()": "c4a8c35d",
        "TriggerLiquidityExchangeAndListingScheduledUnlock()": "1e9785c9",
        "TriggerMarketingScheduledUnlock()": "a8f0f06b",
        "TriggerPrivateSaleScheduledUnlock()": "ba387778",
        "TriggerPublicSaleScheduledUnlock()": "cee6e036",
        "TriggerStrategicOTCScheduledUnlock()": "7bd3cb8b",
        "TriggerSustainableDevelopmentScheduledUnlock()": "bbea0b07",
        "TriggerTeamScheduledUnlock()": "aeca37c7",
        "TriggerTokenGenerationEvent()": "977db5a8",
        "allowance(address,address)": "dd62ed3e",
        "approve(address,uint256)": "095ea7b3",
        "balanceOf(address)": "70a08231",
        "balanceOfAt(address,uint256)": "4ee2cd7e",
        "decimals()": "313ce567",
        "decreaseAllowance(address,uint256)": "a457c2d7",
        "increaseAllowance(address,uint256)": "39509351",
        "initialize()": "8129fc1c",
        "name()": "06fdde03",
        "owner()": "8da5cb5b",
        "pause()": "8456cb59",
        "paused()": "5c975abb",
        "renounceOwnership()": "715018a6",
        "snapshot()": "9711715a",
        "symbol()": "95d89b41",
        "totalSupply()": "18160ddd",
        "totalSupplyAt(uint256)": "981b24d0",
        "transfer(address,uint256)": "a9059cbb",
        "transferFrom(address,address,uint256)": "23b872dd",
        "transferOwnership(address)": "f2fde38b",
        "unpause()": "3f4ba83a"
    },
    "gasEstimates": {
        "creation": {
            "codeDepositCost": "3971600",
            "executionCost": "59402",
            "totalCost": "4031002"
        },
        "external": {
            "AiMiningAndStaking_TGE_Unlock()": "infinite",
            "BusinessDevelopment_TGE_Unlock()": "infinite",
            "CurrentScheduleMonth()": "infinite",
            "LiquidityExchangeAndListings_TGE_Unlock()": "infinite",
            "Marketing_TGE_Unlock()": "infinite",
            "PublicSale_TGE_Unlock()": "infinite",
            "SecurityContact()": "infinite",
            "SustainableDevelopment_TGE_Unlock()": "infinite",
            "TriggerAIMiningAndStakingScheduledUnlock()": "infinite",
            "TriggerAdvisorsAndStrategicPartnersScheduledUnlock()": "infinite",
            "TriggerBusinessDevelopmentScheduledUnlock()": "infinite",
            "TriggerComunityIncentivesAndRewardsScheduledUnlock()": "infinite",
            "TriggerLiquidityExchangeAndListingScheduledUnlock()": "infinite",
            "TriggerMarketingScheduledUnlock()": "infinite",
            "TriggerPrivateSaleScheduledUnlock()": "infinite",
            "TriggerPublicSaleScheduledUnlock()": "infinite",
            "TriggerStrategicOTCScheduledUnlock()": "infinite",
            "TriggerSustainableDevelopmentScheduledUnlock()": "infinite",
            "TriggerTeamScheduledUnlock()": "infinite",
            "TriggerTokenGenerationEvent()": "infinite",
            "allowance(address,address)": "infinite",
            "approve(address,uint256)": "24666",
            "balanceOf(address)": "2649",
            "balanceOfAt(address,uint256)": "infinite",
            "decimals()": "245",
            "decreaseAllowance(address,uint256)": "26955",
            "increaseAllowance(address,uint256)": "27047",
            "initialize()": "infinite",
            "name()": "infinite",
            "owner()": "2434",
            "pause()": "29861",
            "paused()": "2394",
            "renounceOwnership()": "28251",
            "snapshot()": "29871",
            "symbol()": "infinite",
            "totalSupply()": "2394",
            "totalSupplyAt(uint256)": "infinite",
            "transfer(address,uint256)": "infinite",
            "transferFrom(address,address,uint256)": "infinite",
            "transferOwnership(address)": "28466",
            "unpause()": "29861"
        },
        "internal": {
            "_beforeTokenTransfer(address,address,uint256)": "infinite"
        }
    }
}